{
  "_format": "hh-sol-artifact-1",
  "contractName": "SepoliaGenie",
  "sourceName": "contracts/Sepolia-Genie.sol",
  "abi": [
    {
      "inputs": [],
      "stateMutability": "payable",
      "type": "constructor"
    },
    {
      "inputs": [],
      "name": "allDonors",
      "outputs": [
        {
          "internalType": "address[]",
          "name": "",
          "type": "address[]"
        }
      ],
      "stateMutability": "view",
      "type": "function"
    },
    {
      "inputs": [
        {
          "internalType": "address payable",
          "name": "Address",
          "type": "address"
        }
      ],
      "name": "claim",
      "outputs": [],
      "stateMutability": "payable",
      "type": "function"
    },
    {
      "inputs": [],
      "name": "donation",
      "outputs": [],
      "stateMutability": "payable",
      "type": "function"
    },
    {
      "inputs": [],
      "name": "getBalance",
      "outputs": [
        {
          "internalType": "uint256",
          "name": "",
          "type": "uint256"
        }
      ],
      "stateMutability": "view",
      "type": "function"
    },
    {
      "inputs": [],
      "name": "minvalue",
      "outputs": [
        {
          "internalType": "uint256",
          "name": "",
          "type": "uint256"
        }
      ],
      "stateMutability": "view",
      "type": "function"
    }
  ],
  "bytecode": "0x60806040526729a2241af62c000034101561004f576040517f08c379a0000000000000000000000000000000000000000000000000000000008152600401610046906100b1565b60405180910390fd5b6100d1565b600082825260208201905092915050565b7f506c656173652070726f76696465206d696e696d756d20332045746865720000600082015250565b600061009b601e83610054565b91506100a682610065565b602082019050919050565b600060208201905081810360008301526100ca8161008e565b9050919050565b6105dc806100e06000396000f3fe60806040526004361061004a5760003560e01c806312065fe01461004f5780631e83409a1461007a57806323619876146100965780638edeb15d146100c1578063909f8724146100cb575b600080fd5b34801561005b57600080fd5b506100646100f6565b60405161007191906102fa565b60405180910390f35b610094600480360381019061008f9190610378565b6100fe565b005b3480156100a257600080fd5b506100ab610199565b6040516100b891906102fa565b60405180910390f35b6100c96101a4565b005b3480156100d757600080fd5b506100e0610253565b6040516100ed9190610475565b60405180910390f35b600047905090565b66b1a2bc2ec50000471015610148576040517f08c379a000000000000000000000000000000000000000000000000000000000815260040161013f906104f4565b60405180910390fd5b8073ffffffffffffffffffffffffffffffffffffffff166108fc66b1a2bc2ec500009081150290604051600060405180830381858888f19350505050158015610195573d6000803e3d6000fd5b5050565b66b1a2bc2ec5000081565b66b1a2bc2ec500003410156101ee576040517f08c379a00000000000000000000000000000000000000000000000000000000081526004016101e590610586565b60405180910390fd5b6000339080600181540180825580915050600190039060005260206000200160009091909190916101000a81548173ffffffffffffffffffffffffffffffffffffffff021916908373ffffffffffffffffffffffffffffffffffffffff160217905550565b606060008054806020026020016040519081016040528092919081815260200182805480156102d757602002820191906000526020600020905b8160009054906101000a900473ffffffffffffffffffffffffffffffffffffffff1673ffffffffffffffffffffffffffffffffffffffff168152602001906001019080831161028d575b5050505050905090565b6000819050919050565b6102f4816102e1565b82525050565b600060208201905061030f60008301846102eb565b92915050565b600080fd5b600073ffffffffffffffffffffffffffffffffffffffff82169050919050565b60006103458261031a565b9050919050565b6103558161033a565b811461036057600080fd5b50565b6000813590506103728161034c565b92915050565b60006020828403121561038e5761038d610315565b5b600061039c84828501610363565b91505092915050565b600081519050919050565b600082825260208201905092915050565b6000819050602082019050919050565b60006103dc8261031a565b9050919050565b6103ec816103d1565b82525050565b60006103fe83836103e3565b60208301905092915050565b6000602082019050919050565b6000610422826103a5565b61042c81856103b0565b9350610437836103c1565b8060005b8381101561046857815161044f88826103f2565b975061045a8361040a565b92505060018101905061043b565b5085935050505092915050565b6000602082019050818103600083015261048f8184610417565b905092915050565b600082825260208201905092915050565b7f436f6e74726163742062616c616e636520696e73756666696369656e74000000600082015250565b60006104de601d83610497565b91506104e9826104a8565b602082019050919050565b6000602082019050818103600083015261050d816104d1565b9050919050565b7f506c656173652067697665206d696e696d756d20302e3035205365706f6c696160008201527f2045746800000000000000000000000000000000000000000000000000000000602082015250565b6000610570602483610497565b915061057b82610514565b604082019050919050565b6000602082019050818103600083015261059f81610563565b905091905056fea264697066735822122077d49a449864b64fcc75ae2dbff1787924adbda184a1d310e13ec4f46916a76a64736f6c63430008180033",
  "linkReferences": {},
  "deployedLinkReferences": {}
}